:100000000C945D000C9485000C9485000C94850084
:100010000C9485000C9485000C9485000C9485004C
:100020000C9485000C9485000C9485000C9485003C
:100030000C9485000C9485000C9485000C9485002C
:100040000C9449060C9485000C9417060C94F10549
:100050000C9485000C9485000C9485000C9485000C
:100060000C9485000C94850000000008000201003B
:100070000003040700000000000000000000000072
:10008000250028002B0000000000240027002A0083
:10009000040404040404040402020202020203032E
:1000A0000303030301020408102040800102040836
:1000B0001020010204081020930611241FBECFEF68
:1000C000D8E0DEBFCDBF22E0A2E7B1E001C01D92C3
:1000D000A638B207E1F711E0A0E0B1E0E4EEF2E10A
:1000E00002C005900D92A237B107D9F710E0CDE517
:1000F000D0E004C02197FE010E946509CC35D107EC
:10010000C9F70E94F0060C9470090C94000090E06E
:10011000FC01EC55FF4F2491FC01E057FF4F849107
:10012000882399F090E0880F991FFC01EA57FF4F50
:10013000A591B491FC01E458FF4F859194918FB73C
:10014000F894EC91E22BEC938FBF0895E9E8F1E08D
:10015000A089B18982E08C93A485B5851C92A6857F
:10016000B7858FEC8C93108EA489B58986E08C932B
:10017000A289B3898C9180618C93A289B3898C9177
:1001800088608C93A289B3898C9180688C93028853
:10019000F389E02D80818F7D80830895CF92DF9257
:1001A000EF92FF920F931F93CF93DF936C017A012D
:1001B0008B01C0E0D0E0CE15DF0589F0D8016D914C
:1001C0008D01D601ED91FC910190F081E02DC601E9
:1001D0000995892B11F47E0102C02196ECCFC7014D
:1001E000DF91CF911F910F91FF90EF90DF90CF9013
:1001F0000895FC01538D448D252F30E0842F90E02D
:10020000821B930B541710F0CF9608950197089511
:10021000FC01918D828D981761F0828DDF01A80F0E
:10022000B11D5D968C91928D9F5F9F73928F90E030
:1002300008958FEF9FEF0895FC01918D828D98179F
:1002400031F0828DE80FF11D858D90E008958FEFDC
:100250009FEF0895FC01918D228D892F90E0805CA5
:100260009F4F821B91098F739927089589E891E028
:100270000E942A0121E0892B09F420E0822F0895B1
:10028000FC01848DDF01A80FB11DA35ABF4F2C9133
:10029000848D90E001968F739927848FA689B78902
:1002A0002C93A089B1898C9180648C93938D848DDB
:1002B000981306C00288F389E02D80818F7D8083AA
:1002C0000895EF92FF920F931F93CF93DF93EC016A
:1002D00081E0888F9B8D8C8D981305C0E889F98902
:1002E000808185FD24C0F62E0B8D10E00F5F1F4F1F
:1002F0000F731127E02E8C8DE8120CC00FB607FC8F
:10030000FACFE889F989808185FFF5CFCE010E9477
:100310004001F1CF8B8DFE01E80FF11DE35AFF4F35
:10032000F0820B8FEA89FB898081806207C0EE89A9
:10033000FF896083E889F98980818064808381E016
:1003400090E0DF91CF911F910F91FF90EF90089572
:10035000CF93DF93EC01888D8823C9F0EA89FB896C
:10036000808185FD05C0A889B9898C9186FD0FC063
:100370000FB607FCF5CF808185FFF2CFA889B98938
:100380008C9185FFEDCFCE010E944001E7CFDF9138
:10039000CF91089580E090E0892B29F00E943601EA
:1003A00081110C940000089590E0FC01E859FF4F82
:1003B0003491FC01EC55FF4F2491FC01E057FF4FB5
:1003C000E491EE2309F43BC0332339F1333091F04B
:1003D00038F43130A9F0323001F584B58F7D12C088
:1003E000373091F03830A1F03430B9F4809180008A
:1003F0008F7D03C0809180008F77809380000DC037
:1004000084B58F7784BD09C08091B0008F7703C019
:100410008091B0008F7D8093B000F0E0EE0FFF1F61
:10042000E458FF4FA591B4918FB7F894EC91611106
:1004300003C020952E2301C02E2B2C938FBF08952F
:100440008E3008F08E508770806480937C0080919D
:100450007A00806480937A0080917A0086FDFCCFD8
:10046000809178002091790090E0922B08953FB719
:10047000F89480917B0190917C01A0917D01B091D5
:100480007E0126B5A89B05C02F3F19F00196A11D3E
:10049000B11D3FBFBA2FA92F982F8827820F911D1A
:1004A000A11DB11DBC01CD0142E0660F771F881F61
:1004B000991F4A95D1F708958F929F92AF92BF925C
:1004C000CF92DF92EF92FF926B017C010E94370284
:1004D0004B015C01C114D104E104F104F1F00E946C
:1004E0003702DC01CB0188199909AA09BB09883EAA
:1004F0009340A105B10570F321E0C21AD108E108CB
:10050000F10888EE880E83E0981EA11CB11CC1146E
:10051000D104E104F10419F7DDCFFF90EF90DF90F3
:10052000CF90BF90AF909F908F9008952FB7F89481
:1005300060917701709178018091790190917A01B1
:100540002FBF08958F929F92AF92BF92CF92DF926A
:10055000EF92FF926B017C010E9496024B015C01BD
:10056000C60ED71EE81EF91E0E9496026815790570
:100570008A059B0528F0C616D706E806F906A0F7F7
:10058000FF90EF90DF90CF90BF90AF909F908F90B3
:100590000895CF93DF93EC0160E08E810E94D40137
:1005A00061E08E810E94D40160E08E810E94D401BE
:1005B0008BE891E00197F1F7DF91CF910895CF9209
:1005C000DF92EF92FF920F931F93CF93DF937C0103
:1005D0006C0187E0C80ED11CC0E0D0E0062F10E00F
:1005E000B8010C2E02C0759567950A94E2F7617008
:1005F000F60181916F010E94D4012196C430D1058A
:1006000079F7C701DF91CF911F910F91FF90EF9084
:10061000DF90CF900C94C902CF92DF92EF92FF92BD
:100620000F931F93CF93DF93EC01F62E642F8C81F1
:100630000E94D4018D818F3F19F060E00E94D401A7
:100640008F850F2D10E084FF25C06E0187E0C80E56
:10065000D11CE12CF12CB8010E2C02C075956795C8
:100660000A94E2F76170F60181916F010E94D40152
:10067000FFEFEF1AFF0A88E0E816F10461F7CE01F8
:10068000DF91CF911F910F91FF90EF90DF90CF906E
:100690000C94C902B80184E0759567958A95E1F7D5
:1006A000CE010E94DF026F2DCE01DF91CF911F910D
:1006B0000F91FF90EF90DF90CF900C94DF0241E01C
:1006C0000E940C0381E090E0089540E00C940C033C
:1006D000643008F063E090918102691710F06FEFC9
:1006E000690FE62FF0E0E259FD4F9489682F690FFA
:1006F00060688EE692E00C94650361E00E946503F9
:100700008BE39FE10197F1F70895EF92FF920F932A
:100710001F93CF93DF93EC01623018F08F858860D0
:100720008F876B8B1C8A80E48D8B80E18E8B80E5BC
:100730008F8B8C810E9487008D818F3F11F00E94EA
:1007400087008E810E9487007E0187E0E80EF11C01
:1007500000E010E08F8584FD03C084E090E002C0DB
:1007600088E090E00817190744F4F70181917F01B0
:100770000E9487000F5F1F4FEDCF8BE39DE0019735
:10078000F1F760E08C810E94D40160E08E810E94CC
:10079000D4018D818F3F19F060E00E94D4016F85F4
:1007A00064FD1DC063E0CE010E94DF020BE416E48D
:1007B000C8010197F1F763E0CE010E94DF02C80192
:1007C0000197F1F763E0CE010E94DF0283E592E03A
:1007D0000197F1F762E0CE010E94DF0216C060626D
:1007E000CE010E9465038BE496E40197F1F76F85D3
:1007F0006062CE010E94650383E592E00197F1F704
:100800006F856062CE010E9465036F856062CE01D4
:100810000E94650384E0888B6CE0CE010E94650332
:10082000CE010E947D0382E0898B66E0CE01DF91DC
:10083000CF911F910F91FF90EF900C946503089555
:1008400080E090E008958EE00E9420028032934084
:10085000D4F308958EE00E94200290937501809356
:1008600074018436910584F0883C91057CF08039D0
:1008700021E092076CF0883522E092075CF080322C
:10088000934054F08EE4089582E5089585E5089537
:1008900084E408958CE4089583E508950E946B092B
:1008A0006115710579F0FB0101900020E9F731979E
:1008B000AF01461B570BDC01ED91FC910280F381E7
:1008C000E02D099480E090E008954F925F926F923E
:1008D0007F92EF92FF920F931F93CF93DF93CDB749
:1008E000DEB7A1970FB6F894DEBF0FBECDBF7C0177
:1008F000FA01CB0119A2223008F42AE08E010F5D23
:100900001F4F422E512C612C712CBF01A30192016B
:100910000E944309F901CA01015011096A3014F417
:10092000605D01C0695CD8016C93232B242B252BBF
:1009300061F7B801C7010E945004A1960FB6F89460
:10094000DEBF0FBECDBFDF91CF911F910F91FF9002
:10095000EF907F906F905F904F9008950C945004AB
:100960008EE692E00E947D0360E080E00E946803D2
:1009700080910401813019F0823021F0089563E202
:1009800071E002C06AE271E08EE692E00C94AE047F
:100990008EE692E00E947D0360E080E00E946803A2
:1009A00080910201813019F0823021F0089561E3D5
:1009B00071E002C067E371E08EE692E00C94AE0451
:1009C0004091020150E060E070E02AE089E891E0A7
:1009D0000E9465046CE471E089E891E00E94500493
:1009E0000E9423049091800180910401953571F457
:1009F00090917F01911104C0815091F481E010C069
:100A0000809102018150A9F481E013C0943499F4DB
:100A100090917F01911107C08F5F833008F082E0D1
:100A20008093040108C0809102018F5F833008F039
:100A300082E0809302019091040180910101981756
:100A400031F00E94B00480910401809301019091E3
:100A5000020180910001981731F00E94C804809132
:100A60000201809300010895DF92EF92FF920F93AD
:100A70001F93CF93DF93D82F0E942A04C82F80930F
:100A800080010E942304CC3469F164F4C43409F079
:100A9000A0C0E0917201F0917301ED5FFE4F808183
:100AA00081500FC0C23579F0C53509F092C0E09190
:100AB0007201F0917301ED5FFE4F80818F5F01C085
:100AC00080E3808320C0E0917201F0917301319640
:100AD000F0937301E0937201ED5FFE4FD13481F723
:100AE000D08311C0209172013091730121503109DE
:100AF00037FD05C0309373012093720104C010923A
:100B00007301109272018EE692E00E947D03D1344F
:100B100009F041C083E0E82E81E0F82E10E0D70113
:100B20008C91882309F161E0812F0E946803F7010D
:100B3000208180E090E0022E000C330BE901821747
:100B4000930731F0019680389105C1F7C02FDD2D54
:100B5000AE010D2E000C660B770B2AE08EE692E0BC
:100B60000E9465040C2FDD2EAFEFEA1AFA0A1E5F11
:100B70001032A9F660E080E00E94680363E071E053
:100B80008EE692E0DF91CF911F910F91FF90EF9051
:100B9000DF900C94AE0403E011E0C0E0F801808126
:100BA000882389F061E08C2F0E946803E0916E0237
:100BB000F0916F02D8016C9160530190F081E02DAB
:100BC0008EE692E009950F5F1F4FCE5FC03231F77E
:100BD000D1CFDF91CF911F910F91FF90EF90DF90D8
:100BE00008951F920F920FB60F9211242F933F93E7
:100BF0004F935F936F937F938F939F93AF93BF9325
:100C0000EF93FF9389E891E00E944001FF91EF91FB
:100C1000BF91AF919F918F917F916F915F914F9114
:100C20003F912F910F900FBE0F901F9018951F921C
:100C30000F920FB60F9211242F938F939F93EF93E0
:100C4000FF93E0919901F0919A018081E0919F01D9
:100C5000F091A00182FD12C090818091A2018F5F6E
:100C60008F732091A301821751F0E091A201F0E06F
:100C7000E757FE4F958F8093A20101C08081FF91BD
:100C8000EF919F918F912F910F900FBE0F901F901A
:100C900018951F920F920FB60F9211242F933F9326
:100CA0008F939F93AF93BF93809177019091780139
:100CB000A0917901B0917A013091760123E0230F60
:100CC0002D3720F40196A11DB11D05C026E8230F84
:100CD0000296A11DB11D2093760180937701909318
:100CE0007801A0937901B0937A0180917B01909172
:100CF0007C01A0917D01B0917E010196A11DB11DE5
:100D000080937B0190937C01A0937D01B0937E0141
:100D1000BF91AF919F918F913F912F910F900FBEF7
:100D20000F901F901895E9E8F1E01382128288EE87
:100D300093E0A0E0B0E084839583A683B78389E045
:100D400091E09183808385EC90E09587848784ECA3
:100D500090E09787868780EC90E0918B808B81EC88
:100D600090E0938B828B82EC90E0958B848B86EC69
:100D700090E0978B868B118E128E138E148EE6E286
:100D8000F2E0168217821086118612861386148668
:100D9000158616861786108A118A128A138A148A73
:100DA000158AEEE6F2E0138212828BE191E09183E4
:100DB000808388E084838FEF858389E0868384E065
:100DC000878385E0808786E0818787E08287138636
:100DD000148615861686178661E0CF010C9485036C
:100DE000789484B5826084BD84B5816084BD85B506
:100DF000826085BD85B5816085BD80916E00816012
:100E000080936E00109281008091810082608093B7
:100E100081008091810081608093810080918000B9
:100E20008160809380008091B10084608093B100E4
:100E30008091B00081608093B00080917A008460DE
:100E400080937A0080917A00826080937A0080910A
:100E50007A00816080937A0080917A008068809324
:100E60007A001092C10010926A0210926B021092E6
:100E70006C0210926D0210922802109229021092B8
:100E80002A0210922B0268EB7BE080E090E00E9447
:100E9000A20289E891E090936902809368020E941F
:100EA000A6000E9496026093280270932902809304
:100EB0002A0290932B026DE371E080916802909179
:100EC00069020E94AE046AE070E080E090E00E9457
:100ED000A20281E080933C0262E08EE692E00E94F2
:100EE00085030E94A6000E94B00468EE73E080E0D3
:100EF00090E00E945C0284EF882E99249394A12CA8
:100F0000B12CC1E0D0E30E949602672B682B692BBD
:100F100041F40E949602623071058105910508F442
:100F20000BC10E94960260938501709386018093A5
:100F3000870190938801C0908101D0908201E09058
:100F40008301F09084016C157D058E059F0540F4AA
:100F50006093810170938201809383019093840157
:100F6000C0908101D0908201E0908301F0908401D3
:100F70009B01AC012C193D094E095F0969017A01F9
:100F80003AEFC316D104E104F10408F4D5C060932C
:100F900081017093820180938301909384018092F8
:100FA000340290923502A0923602B092370210922B
:100FB00038021092390210923A0210923B0280914C
:100FC0002C0290912D02A0912E02B0912F028093BD
:100FD000300290933102A0933202B09333020E9408
:100FE000960260932C0270932D0280932E029093B0
:100FF0002F020E9496026093280270932902809328
:101000002A0290932B020E9496026B017C016FE4EE
:1010100071E080916802909169020E94AE042AE01A
:1010200041E050E060E070E08091680290916902D8
:101030000E94650466E571E0809168029091690202
:101040000E94AE042AE0B701A60180916802909147
:1010500069020E94650468E571E0809168029091E0
:1010600069020E94AE0480912C0290912D02A09101
:101070002E02B0912F02B701A601481B590B6A0B33
:101080007B0B2AE080916802909169020E946504BE
:1010900068E571E080916802909169020E94AE0457
:1010A00040912C0250912D0260912E0270912F02DE
:1010B0008091300290913102A0913202B0913302BE
:1010C000481B590B6A0B7B0B2AE0809168029091B8
:1010D00069020E9465046AE571E08091680290915E
:1010E00069020E94AE040E949602AB01BC012AE094
:1010F00080916802909169020E946504E090680204
:10110000F09069026CE571E0C7010E9450046CE444
:1011100071E0C7010E94500465E070E080E090E05B
:101120000E94A2020E94960260932C0270932D02EC
:1011300080932E0290932F020E942A0480938001B4
:101140000E94E00480918001833509F08EC00E94E6
:101150002304C0937F01809104018130A1F082308B
:1011600009F078C08EE692E00E947D0360E080E0A6
:101170000E94680363E671E08EE692E00E94AE048E
:101180000E94C80436C08EE692E00E947D0360E0B3
:1011900080E00E9468030E94C8040E942A048C34E4
:1011A00061F10E942A04809380010E94E0046AE0B9
:1011B00070E080E090E00E945C02809180018335C5
:1011C00061F78EE692E00E947D0363E071E08EE6B7
:1011D00092E00E94AE040E942A04833571F081E4FB
:1011E0000E9434056AE070E080E090E00E945C02BA
:1011F000F2CF0E942A048C3419F410927F012AC085
:101200000E942A04809380010E94E0046AE070E05A
:1012100080E090E00E945C0280918001833549F774
:101220008EE692E00E947D03D093030163E071E0BB
:101230008EE692E00E94AE040E942A048335E9F211
:1012400082E40E9434056AE070E080E090E00E9451
:101250005C02F2CF80917F01811103C00E94B00433
:1012600002C00E94C8040E94230480917F01811162
:101270000E94C8046AE070E080E090E00E945C0296
:101280000E94CA0140CEA1E21A2EAA1BBB1BFD017F
:101290000DC0AA1FBB1FEE1FFF1FA217B307E40755
:1012A000F50720F0A21BB30BE40BF50B661F771FAD
:1012B000881F991F1A9469F760957095809590958D
:1012C0009B01AC01BD01CF010895EE0FFF1F0590FA
:1012D000F491E02D099481E090E0F8940C94700969
:0412E000F894FFCFB0
:1012E4000101014101000000006101CE00F900A8E4
:1012F400012A0108011C01000000005F03CE002048
:10130400041F04456E636F6465004465636F646520
:10131400004153434949004D4F52534500564D44F3
:1013240050565F317C315F564D4450560D0A00567D
:101334004D4450455F003A323A007C005F564D44BC
:10134400504500496E73696465204D656E75204291
:02135400000097
:107E0000112484B714BE81FFF0D085E080938100F7
:107E100082E08093C00088E18093C10086E0809377
:107E2000C20080E18093C4008EE0C9D0259A86E02C
:107E300020E33CEF91E0309385002093840096BBD3
:107E4000B09BFECF1D9AA8958150A9F7CC24DD24C4
:107E500088248394B5E0AB2EA1E19A2EF3E0BF2EE7
:107E6000A2D0813461F49FD0082FAFD0023811F036
:107E7000013811F484E001C083E08DD089C08234E0
:107E800011F484E103C0853419F485E0A6D080C0E4
:107E9000853579F488D0E82EFF2485D0082F10E0AE
:107EA000102F00270E291F29000F111F8ED06801E7
:107EB0006FC0863521F484E090D080E0DECF843638
:107EC00009F040C070D06FD0082F6DD080E0C81688
:107ED00080E7D80618F4F601B7BEE895C0E0D1E017
:107EE00062D089930C17E1F7F0E0CF16F0E7DF06D8
:107EF00018F0F601B7BEE89568D007B600FCFDCFD4
:107F0000A601A0E0B1E02C9130E011968C91119780
:107F100090E0982F8827822B932B1296FA010C0160
:107F200087BEE89511244E5F5F4FF1E0A038BF0790
:107F300051F7F601A7BEE89507B600FCFDCF97BE46
:107F4000E89526C08437B1F42ED02DD0F82E2BD052
:107F50003CD0F601EF2C8F010F5F1F4F84911BD097
:107F6000EA94F801C1F70894C11CD11CFA94CF0C13
:107F7000D11C0EC0853739F428D08EE10CD085E9AC
:107F80000AD08FE07ACF813511F488E018D01DD067
:107F900080E101D065CF982F8091C00085FFFCCF94
:107FA0009093C60008958091C00087FFFCCF809118
:107FB000C00084FD01C0A8958091C6000895E0E648
:107FC000F0E098E1908380830895EDDF803219F02E
:107FD00088E0F5DFFFCF84E1DECF1F93182FE3DFCA
:107FE0001150E9F7F2DF1F91089580E0E8DFEE27F6
:047FF000FF270994CA
:027FFE00040479
:0400000300007E007B
:00000001FF